:100000000C942A000C943F000C943F000C943F0089
:100010000C943F000C943F000C943F000C943F0064
:100020000C943F000C943F000C943F000C943F0054
:100030000C943F000C943F000C943F000C943F0044
:100040000C943F000C943F000C943F000C943F0034
:100050000C943F0011241FBECFE5D8E0DEBFCDBF1A
:1000600010E0A0E6B0E0E0E2F5E002C005900D92FD
:10007000A836B107D9F70E9499010C948E020C940E
:100080000000CF93C82F40E062E081E00E944D0263
:1000900040E064E081E00E944D02C4FB442740F947
:1000A00060E180E00E944D02C5FB442740F960E218
:1000B00080E00E944D02C6FB442740F960E480E0E6
:1000C0000E944D024C2F441F4427441F60E880E0EB
:1000D0000E944D0240E068E081E00E944D0287EC02
:1000E00090E00197F1F700C0000041E068E081E096
:1000F0000E944D024C2F417060E180E00E944D0251
:10010000C1FB442740F960E280E00E944D02C2FB3F
:10011000442740F960E480E00E944D02C3FB44277D
:1001200040F960E880E00E944D0240E068E081E034
:100130000E944D0287EC90E00197F1F700C00000AB
:1001400041E068E081E00E944D02CF910895CF9395
:10015000C82F41E062E081E00E944D0240E064E08F
:1001600081E00E944D02C4FB442740F960E180E039
:100170000E944D02C5FB442740F960E280E00E94E6
:100180004D02C6FB442740F960E480E00E944D0226
:100190004C2F441F4427441F60E880E00E944D021A
:1001A00040E068E081E00E944D0287EC90E001971A
:1001B000F1F700C0000041E068E081E00E944D02DC
:1001C0004C2F417060E180E00E944D02C1FB44274A
:1001D00040F960E280E00E944D02C2FB442740F9F2
:1001E00060E480E00E944D02C3FB442740F960E8D0
:1001F00080E00E944D0240E068E081E00E944D02F4
:1002000087EC90E00197F1F700C0000041E068E062
:1002100081E00E944D02CF91089542E06EE081E0BE
:100220000E94E40142E060EF80E00E94E40141E0CE
:1002300068E081E00E944D022FEF80E792E02150BC
:1002400080409040E1F700C0000040E062E081E0C3
:100250000E944D0240E064E081E00E944D0240E0D7
:1002600060E180E00E944D0241E060E280E00E9497
:100270004D0240E060E480E00E944D0240E060E812
:1002800080E00E944D0240E068E081E00E944D0263
:1002900087EC90E00197F1F700C0000041E068E0D2
:1002A00081E00E944D028CE20E94410087EC90E0C8
:1002B0000197F1F700C000008FE00E94410087EC39
:1002C00090E00197F1F700C0000081E00E9441003A
:1002D0008FE39FE10197F1F700C0000086E00E94E4
:1002E000410008950E94A70008950F931F93CF9394
:1002F000FC018081882359F08F01C0E00E94A70093
:10030000CF5FF801EC0FF11D80818111F7CFCF9104
:100310001F910F910895862B0E944100089581E05E
:100320000E9441008FE39FE10197F1F700C00000B8
:1003300008950E940D0162E080EC0E948B0180E62E
:1003400090E00E9475012FEF89E698E121508040EE
:100350009040E1F700C000000E948F01DAE2C0E0A7
:1003600004C0C03109F4C0E0DF5F6C2F80E80E9458
:100370008B018D2F0E9472012FEF80E792E02150B8
:1003800080409040E1F700C000006C2F80EC0E949C
:100390008B012FEF80E792E0215080409040E1F701
:1003A00000C000008D2F0E9472012FEF83ED90E3BB
:1003B000215080409040E1F700C000000E948F0172
:1003C000CF5FD73A71F6CACF8130F9F030F0823082
:1003D000A1F1833009F449C00895413049F018F083
:1003E000423079F008958AB3609568236ABB089516
:1003F0008AB3962F909589238ABB8BB3682B6BBBEE
:1004000008958AB3682B6ABB0895413049F018F00B
:10041000423079F0089587B36095682367BB0895EB
:1004200087B3962F9095892387BB88B3682B68BBC9
:10043000089587B3682B67BB0895413049F018F0E1
:10044000423079F0089584B36095682364BB0895C1
:1004500084B3962F9095892384BB85B3682B65BBA5
:10046000089584B3682B64BB0895413049F018F0B7
:10047000423079F0089581B36095682361BB089597
:1004800081B3962F9095892381BB82B3682B62BB81
:10049000089581B3682B61BB089581110FC0442377
:1004A00019F0413039F00AC09BB3262F20959223D2
:1004B0009BBB24C09BB3962B9BBB20C0813071F4A7
:1004C000442319F0413031F009C088B360956823A6
:1004D00068BB089588B3682B68BB0895823071F4B7
:1004E000442319F0413031F009C085B36095682389
:1004F00065BB089585B3682B65BB0895833069F4A7
:10050000442319F0413031F0089582B36095682397
:1005100062BB089582B3682B62BB0895F894FFCF45
:08052000426172626172790010
:00000001FF
