S016000041544D4547413332412D4750494F2E737265635D
S11300000C942A000C9434000C9434000C943400A6
S11300100C9434000C9434000C9434000C9434008C
S11300200C9434000C9434000C9434000C9434007C
S11300300C9434000C9434000C9434000C9434006C
S11300400C9434000C9434000C9434000C9434005C
S11300500C94340011241FBECFE5D8E0DEBFCDBF21
S11300600E9436000C9404010C94000042E064E801
S113007082E00E945A0042E068E083E00E945A0055
S113008040E061E181E00E945A0040E064E083E0E6
S11300900E945A0042E064E080E00E945A0041E07D
S11300A064E080E00E94C30040E064E080E00E94DD
S11300B0C300F5CF8130F9F030F08230A1F1833004
S11300C009F449C00895413049F018F0423079F0FC
S11300D008958AB3609568236ABB08958AB3962FFE
S11300E0909589238ABB8BB3682B6BBB08958AB325
S11300F0682B6ABB0895413049F018F0423079F01A
S1130100089587B36095682367BB089587B3962FD6
S11301109095892387BB88B3682B68BB089587B300
S1130120682B67BB0895413049F018F0423079F0EC
S1130130089584B36095682364BB089584B3962FAF
S11301409095892384BB85B3682B65BB089584B3DC
S1130150682B64BB0895413049F018F0423079F0BF
S1130160089581B36095682361BB089581B3962F88
S11301709095892381BB82B3682B62BB089581B3B8
S1130180682B61BB089581110FC0442319F04130DD
S113019039F00AC09BB3262F209592239BBB24C021
S11301A09BB3962B9BBB20C0813071F4442319F080
S11301B0413031F009C088B36095682368BB089565
S11301C088B3682B68BB0895823071F4442319F016
S11301D0413031F009C085B36095682365BB08954B
S11301E085B3682B65BB0895833069F4442319F003
S11301F0413031F0089582B36095682362BB08955D
S10F020082B3682B62BB0895F894FFCF12
S9030000FC
